:4000000000800020110000007D0D00007D0D000010B500F0D3FEC04610B51222304B1A6001F020FC302001F035FB2E4A2E4B1A6000242E4B1C602E4B2E4A1A609C229201C3
:400040002D490A602D4919602D490A602D4A1A60FE2212022C490A602C4919602C490A602C4A1A60C02149012B4A11602B4A1A60802149002A4A11602A4A1A60E021490108
:40008000294A1160294A1A6082221206284B1A60284A294B1A604623284A1360284A1360284A1360284A13604722284B1A60063A274B1A600132274B1A600232264B1A60A9
:4000C000013A264B1A600232254B1A602549082001F004FA082001F0EBF9234B1C6010BD300010400600008004010B40000301400000014040FF00801803014046FF0080C8
:400100001C03014047FF00800403014041FF00800803014042FF00801003014044FF00800C03014043FF00801403014045FF008008010B404902040000010B4038010140D6
:4001400034010140300101402C010140280101401C01014018010140100101400C01014008010140511900000C020B4070B572B60122504B1A7000240FE04F48620013198D
:4001800059000B00411889881A5AC31858880004104300F09FFD0134E4B2012CEDD9464801000C31743000F07BFDF8221206434B1A6080221201424B1A60424A424B1A6040
:4001C000424A434B1A60434A434B1A60434A444B1A6099231B04434A1360A021C902424A11604249424A116080210903414A1160414A1360414A1360414A13608A21C9033A
:40020000404A1160404A1360404A414B1A600121404B1960404803783C22934314221343DBB203703D4A107816230343DBB213700F233B4A1360902080033A4A10603A4ADA
:4002400013602520394A106039483A4A10608020394A10602124394A1460D222384C2260384D394C2560394C2060394802601320384A10603848394A10600820384A10606C
:400280004630384A10603848384A10600E20384A1060384A13602422374B1A60183A374B1A60374B1960374B1960FFF7B5FE00F027FD70BD1C700F40683500000000024025
:4002C00000010240FF0F00000002024008EE0800000302409900A00A00040240EE7600000005024000500F4008500F400400990010500F4014500F4020500F4040500F400F
:4003000050500F4058500F4070500F4010990900600120402000104001700F4000700F400000044008000440180004400001044088631800080104400C0104401801044037
:400340000002044071020000080204400C0204401802044000030440966D0000080304400C030440000404403180180008040440180404400005044008050440180504401E
:40038000000704401807044010B5064C2378002B07D1054B002B02D0044800E000BF0123237010BD4801002000000000E8320000084B10B5002B03D00749084800E000BF46
:4003C00007480368002B00D110BD064B002BFBD09847F9E7000000004C010020E8320000C00000200000000070B562B601F016FB0E4C0A220E49200002F00EFB200001F0C5
:4004000083FB0C4D00232B7000F0AEF92978072000F06EFA2A780849200002F041FB200001F072FB1E2001F091F870BDCC010020EC32000064010020F832000010B5FFF757
:40044000D3FF074800F0C2FB002803D10549044800F00AF8FA20800001F078F8F1E7C0463C02002030020020F0B585B004000D0000F008FC0600200000F002FC02902000F8
:4004800000F0FCFB03902D4801F03EFB3004000CF02802D0F52805D04AE0294801F034FB002048E0200000F0CDFB1638C3B2052B2BD89800234B1B589F4600F053F8070096
:4004C000214801F021FB002624E0204801F01CFB002600271EE01E4801F016FB00F068F80700002616E01B4801F00EFB0026002710E0194801F008FB002600270AE0174841
:4005000001F002FB0026002704E0154801F0FCFA12260027A3790097039A0299280000F07BFB002E06D1280000F02EFA300002E0132000E0300005B0F0BDC046203300002B
:400540004433000008330000543300005C330000643300006833000074330000803300008C33000000B593B000F014F910A911A800F020F9002805D10B4801F0C5FA0120D6
:4005800040420EE0119802F055F90300074A4021684602F053FA684601F0B6FA119802F049F913B000BDC046B4330000C833000000B593B000F0EEF810A911A800F0FAF88A
:4005C00000280FD0109802F035F90300074A4021684602F033FA684601F096FA109802F029F901E00120404213B000BDC833000030B505000024FF2011E02B5D584000235F
:400600000AE042B2002A04DA400031225040C0B201E04000C0B20133072BF2DD01348C42EBDB30BD70B590B0060AC4B200F026FE14220021442000F031FD0500C3B2002B44
:400640000BD01E4801F060FAFF222A401C49684602F026FA684601F057FA1421300000F0ABFD0500C6B21421200000F0A5FDC4B2002E0BD0134801F047FAFF222A401049FD
:40068000684602F00DFA684601F03EFA002C0BD00D4801F039FAFF222A400949684602F0FFF9684601F030FA002E04D1142000F057FD012000E0002010B070BDF033000052
:4006C00018340000243400004C34000010B582B02148FFF7A7FF002802D1204801F014FA00F0CCFD14220121442000F0D7FCC4B20322002101A802F098F9002C02D01848FA
:4007000001F002FA142201A9002000F079FD322000F01CFF14226B46591D002000F070FD322000F013FF14226B46991D012000F067FDC4B2322000F009FF142000F010FDD8
:40074000002C02D0074801F0DFF901AB187800025B78184302B010BD2DF30000743400009C340000C034000010B500F087FB0748FFF758FF0A2000F0E9FEFFF7A7FF044B2D
:400780009C466044431E9841C0B210BDA23000000100FFFF10B5FFF799FF054B984203D0830403D4002002E0002000E0012010BDFFFF0000F0B5474680B492B007000E0010
:4007C0000622002110A802F030F9322000F0BEFE90208001FFF726FF051E06D1322000F0B5FE3B4801F090F96CE0322000F0AEFE00F044FD14220121442000F04FFCC4B2CF
:40080000322000F0A3FE002C05D0324801F07CF9142000F0A5FC00241BE0322000F096FE0120042C00DC0020C0B210AB1919142200F0E6FCC0B200280AD0274801F064F955
:4008400022002649684602F02BF9684601F05CF90134052CE1DD10A884780221FFF7C8FE84422CD110AB5C79022143206844FFF7BFFE844225D110AC2078000263781843F8
:40088000174B58438013174B9C46604401F0F4FF154901F0B5FE8046E078000223791843124B5843000B02F02FF80F4901F0A8FE43463B603060142000F052FC02E000258B
:4008C00000E00025280012B004BC9046F0BDC046E4340000103500003835000060350000171100006CEEFFFF0000C84271020000F8B504000D0001F04DFB0F2020401A4E76
:4009000030603F212940194B1960194C00252570800108434005E060164FA760164B1B686360200001F000FA01232370E560A760124B1B686360200001F0F6F90223237095
:400940003368DB06FC22D2041343E360A7600C4B1B686360200001F0E7F901F0E1F809491D2000F0BBFDF8BD580200205C02002048020020FFFF1F80A0002F40C0002F40E6
:40098000E0002F40790A000010B586B0002815D0038802AC02930023237163718278A271E3716B460593C11C0822684602F034F8200001F005FB002802D102E0022000E097
:4009C000012006B010BDC046014B18787047C0465C020020014B18787047C04658020020104B1878C0B2002819D15A78D2B29B78DBB29A4205D20B4A93785078181AC0B23F
:400A00000EE0084B5A78D2B29B78DBB29A4207D9044A93785078181A1030C0B200E010207047C04665010020124A93780133DBB293709378DBB20F2B02D900220D4B9A700F
:400A40000C4B1B78002B0BD00A4A53780133DBB253705378DBB20F2B02D90022054B5A70044A537891785B1A59424B41DBB213707047C0466501002070B580225201444B80
:400A80001A60444B1B68DA0706D49A0706D45A0706D41B0706D406E0002404E0012402E0022400E003243C4B9A78D2B264013B4B9C4664442368DB0202D46168490D02E04A
:400AC0006168C90889B2364B500082189000C152314A9178C9B22068000C0F2528404D0069188D005D19A8709178C9B2A5682D0E4800411888001818C5709178C9B2A06815
:400B0000000CC0B24D0069188D005D1928719178C9B2A068000AC0B24D0069188D005D1968719178C9B2A568EDB2480041188800181885719178C9B2E5682D0E48004118EF
:400B400088001818C5719178C9B2E068000CC0B24D0069188D005D1928729178C9B2E068000AC0B24D0069188D005D1968729278D2B2E068C0B251008A1891005B18987296
:400B8000FFF752FF226801231343236070BDC04600002F4008002F4065010020A0002F406002002010B5FFF71BFF00280BD0064A53780133DBB253705378DBB20F2B02D953
:400BC0000022014B5A7010BD6501002010B582B0041E17D0FFF704FF6B46D87107331B78002B11D00A4B5B78DBB25A00D3189900084B59180C22200001F00EFFFFF7D2FF34
:400C0000002002E0022000E0022002B010BDC046650100206002002070B504001E00012000F012F820800823A370E51CF621280000F018F82418E670421C0499280000F0DC
:400C400023F870BD8079704780028023DB0018408901403B194001433F200240114308007047C04610B504000170FFF7B3FE6070FFF7AAFEA070032010BDC0464079704703
:400C800000797047C078704710B50B0E8354531C0C14C454931C0C12C4540332815410BDF0B50025002711E0BB00C658F3B2FF22964308E06A008A181478A419527822700A
:400CC0000135013BDBB2002BF4D101370C2FEBD9F0BDC04610B50A00002101F0A6FE10BD064B1B68002803D080221206134301E05B005B08014A13607047C04680033A40D3
:400D000010B580231B060F4A136003220E490A600E480F4908600F480F4908600C200F4908600F490A600F4A13600F4A0F4B1A600F4A104B1A6000220F4B1A600B38FFF747
:400D4000CFFF10BD000030403000304004400400800030400240040088003040C00030403000314000003A405080400000033A40D000400040033A40000E3F4010B501F06A
:400D80001FFE03680C2B00D1FEE7FEE710B50300084A1068C318084A9A1A802A02DC054A136005E001F00CFE0C2303600120404210BDC046C40000205003002070B50F4E5B
:400DC0000F4D13E029686B68AC68002202E001C901C30432A242FAD1E868002202E0002102C304328242FAD11035013E002EE9D101F0ECFDFFF722FBFEE7C0460100000071
:400E00007C38000010B50E4A136801218B43136000230AE0032B03D89A000A49505800E009489900094A885001332F2BF2D9FFF79DF9034A116801230B43136010BDC04600
:400E400000001040000000007D0D00000000002010B50B2000F02CFB10BDC04610B500F01DF810BD10B5044A1368802109060B431360FFF7EDFF10BD0000264010B5064BDD
:400E80001B78002B04D1FFF7E9FF0122024B1A70FFF7E8FF10BDC0466C01002010B50024184B1C60184A194B1A60194B194A1360194A1460194A1460194A1360194B1C60E4
:400EC0000B2000F0FFFA03210B2000F019FB16490B2000F003FB154B1C60154B1C60154B1C60154B1C60154B1C60154B1C601022144B1A70144B1C80144B1C60144B1C601F
:400F000010BDC04600002640770800806000264007010080000326400403264010032640000226400402264039210000C80E2640880E2640480F2640080F2640C80F2640FF
:400F4000880F26402003002030030020380300202403002010B50E4A13685B005B08136000230C490B600C490B600C4804680C49214001600B490B600B490B6010210B4BF4
:400F800019701368802109060B43136010BDC04600002640680026406C00264060002640FF5CFFFF880F2640C80F26402003002010B504000368002B09D0012000F060FBA3
:400FC0002368013B2360002B03D0002003E0002001E08020000610BD10B5002839DBC023034208D00022284B1A601032274B1A70002310243DE0C3070FD5244B1B781B079E
:401000002BD5234B1B685B0001D5002300E0012310211E4A117001242BE0C30520D4830722D4C30605D51022184B1A70002300241FE0164B1B781B0719D5144B1B78DB0701
:4010400001D5252200E02422104B1A70002300240FE00123802424060BE00123012408E001238024640004E00023022401E000230024012B02D1FFF76DFF02E0054A064BA0
:401080001A60200010BDC04668002640200300206000264017030000000F264070B582B004000D001600244B1B78102B40D10B2000F008FA214B1B68DB0734D4FA239B00E3
:4010C0005E43019600221E4B1A601E4A1E4B1A601E4A1F4B1A606400FF231C40002D03D12422154B1A7004E02522134B1A7001231C43184B1C600222174B1A60124B1C68B3
:401100000823FF3320001840144B1B68C02423401843040001A8FFF74BFF2043EED0FFF75BFF040000E008240B2000F0C1F900E00424200002B070BD2003002064002640FF
:40114000080F264017030000000F2640ED0F0000C00F26404002264068002640400F264010B582B0104B1B789B061AD5FA239B00584301900D4B1B689B0601D5182200E042
:4011800010220B4B1A600B4B18681223FF331840040001A8FFF70CFF2043F4D0FFF71CFF00E0042002B010BD200300206400264068002640000F264010B582B00D4B1B78FD
:4011C0009B0613D5FA239B00594301910A4B18600A4B18680823FF331840040001A8FFF7E7FE2043F4D0FFF7F7FE00E0042002B010BDC0462003002040022640000F2640A6
:40120000F0B583B004000D00164B1B789B0626D5FA239B005A430192134B18680223FF3318400700114B1B6804261E4001A8FFF7BFFE384333000343EED0002E05D00C4BEA
:401240001B682B700B4A094B1A60FFF7C5FE002806D1002C04D10422074B1A6000E0042003B0F0BD20030020000F2640C00F264040032640ED0F00006800264010B50B20CE
:4012800000F020F9044B1C88A4B200221A800B2000F00EF9200010BD30030020074B1B78272B05D8064B1B78DBB2064A136004E0054B1B78DBB2034A1360704702F3FF0FA8
:4012C00042F3FF0F20FF0B40C1F1FF0F00230AE0204A12683F210A401F49C95C8A4201D1033303E001332D2BF2D903231B4A12781B2A16D8302B05D1194B1B78DBB2194AEB
:40130000136006E0182B04D1174B1B78DBB2154A136016490B681F229343173A13430B6016E0302B05D1124B1B78DBB20D4A136006E0182B04D10F4B1B78DBB2094A136041
:401340000A4A13681F218B430B4909780B4313607047C0462CFF0B401036000002F3FF0F3FF3FF0F28FF0B403EF3FF0F34FF0B40C3F1FF0FC2F1FF0FC0F1FF0F00230AE0C0
:401380000D4A12683F210A400C49C95C8A4201D1033303E001332D2BF2D9032308490868084A02400A60084A944663441B78DBB2064A13607047C0462CFF0B401036000016
:4013C00000002240FFFFFFBF4DF3FF0F28FF0B40034B18688023DB05184000D0012070470000224010B50B4A136801218B431360094B1A68094B1A60094A12685A60FFF743
:4014000065FFFFF74BFF074A116802230B43136010BDC04650000C4034FF0B407401002020FF0B4024002C4030B500230AE0134A12683F210A401249C95C8A4201D1033315
:4014400003E001332D2BF2D903230E490A68022082430A600C4C21681F2291430B4805682A400A4322604168094A1160094A944663441B78DBB2084A136030BD2CFF0B407A
:401480001036000024002C4034FF0B407401002020FF0B404DF3FF0F28FF0B40034B1B680220184000D001207047C04624002C401F2318401E3B8340014A13607047C0465F
:4014C00000E100E01F2318401E3B8340014A13607047C04680E100E001BE704770B504000D001F2802D90020FFF7F6FF1034A40080239B059C4664442068256070BDC046EB
:4015000070B504000E00032902D90020FFF7E4FF1F2C02D90020FFF7DFFF03252540ED00063500F002FEA408A400074B9C46644421680323AB4099430B003100A940194392
:40154000216000F0F6FD70BD00E400E010B5040006E0084B586800F0DFFD074B9C46644480231B029C42F4D8024B9868604300F0D3FD10BDC80000200080FFFF70B582B008
:4015800000F090F9002862D000F0CFFD0500314A116801230B43136000230AE02E4A12683F210A402D49C95C8A4201D1033303E001332D2BF2D903230021294A1160294ACE
:4015C0001268D20606D1274802681F318A4313390A430260244C2168244A1140244A5A438023DB019C466244D20B013A5205520D0B001343A0225203134323601D4B1B68FD
:401600000193302000F038FF1B4A13688021C9050B4313602668194B1E40002407E00120FFF794FF1034A30533430F4A1360EE2CF5D90120FFF78AFFFF239B051E430A4B5C
:401640001E60019A0B4B1A60280000F072FD02B070BDC04650000C402CFF0B401036000028FF0B4034FF0B400800224000F800C040420F003000104000002240FFFF3FC03B
:4016800010B5034B1B7B584300F046FD10BDC046C8000020F0B55F4656464D464446F0B483B0040000F041FD0190FFF791FE002804D0FFF763FE01239A4601E000239A469B
:4016C000FFF7ECFE002808D0182C01D0302C07D1FFF7AAFE01239B4604E000239B4601E000239B46E61E2D2E74D8464B1B78DBB29C4208D8444B1B78DBB29946434B1B7888
:40170000DBB2984631E0424B1B78DBB29C4208D8404B1B78DBB299463F4B1B78DBB2984623E03E4B1B78DBB29C4208D83C4B1B78DBB299463B4B1B78DBB2984615E03A4BC2
:401740001B78DBB29C4208D8384B1B78DBB29946374B1B78DBB2984607E0364B1B78DBB29946354B1B78DBB29846344B9F5D2F2F09D92A2C07D91922314B1A60052000F06D
:40178000CBFC192503E02E4B1D683F231D40BD4206D92A4B9A5D2A4B1A60052000F0BCFC254B9C4664442378DBB2264A1360264B4A461A60254B42461A600520FFF760FF12
:4017C000BD420AD21D4B9A5D1D4B1A60052000F0A3FC02E00020FFF77FFE5346012B01D1FFF7CCFE5B46012B01D1FFF7FBFD019800F09FFC03B03CBC90469946A246AB4663
:40180000F0BDC04640F3FF0F41F3FF0F42F3FF0F43F3FF0F44F3FF0F45F3FF0F46F3FF0F47F3FF0F48F3FF0F49F3FF0F4AF3FF0F4BF3FF0F4CF3FF0F4DF3FF0F10360000C6
:401840002CFF0B4028FF0B401CFF0B4020FF0B40034B1868C0231B02184000D00120704700010B4010B50D4B1A6801218A431A601A68022082431A60094A10683024A043A9
:40188000203C204310601068093CA043014311601A68802109060A431A6010BD00002240000F2240034B1B68002B01DA012000E0002070470000224010B500F036FC044AC5
:4018C0001368C02109020B43136000F032FC10BD00010B4010B500F028FC08490A68084B1A408024E40122430A600A6813408022120213430B6000F01CFC10BD00010B408B
:40190000FF3FFFFF70B5050000F00FFC0400FFF79FFF002803D0FFF7DDFF012100E0002108482840084A1568084B2B40184310601368012901D1FFF7BFFF200000F0F9FB7F
:4019400070BDC0460404040010020B40FBFBFBFF10B5244B1B685B0715D5234B5B685B070ED5224B596A042001401F4C62688A4362605A6A82435A629B69002B00D09847E6
:401980000420FFF7BFFF174B1B685B0518D5164B5B685B0510D5154B596A8022D2001140114842688A434260596A114A0A405A62DB69002B00D098478020C000FFF7A2FF21
:4019C000084B1B685B030CD5074B5B685B0304D5064B1B6A002B00D098478020C002FFF791FF10BD10020B40DC00002094010020FFFBFFFF10B500F075F810BD10B500F077
:401A00001DF810BD10B5044A1368802109060B431360FFF7EFFF10BD0000244010B5064B1B78002B04D1FFF7E9FF0122024B1A70FFF7E8FF10BDC046BC010020154A164BE2
:401A40001A600023154A13601549164A1160164A16490A6007201649086016490B6006381549086015490A60154A13600421154A1160154A1360154A1360154A1360154A7F
:401A80001360154A1360154A13601268144B1A807047C0460B000002000024404000244001000A004800244007000080000324400403244010032440440024400002244035
:401AC0000402244050002440880E2440C80E2440480F2440080F2440C80F2440880F2440BE01002005490B68F0229343603A13430B60034B1A88034B1A6070470004024090
:401B0000BE010020880F244070B50500002402E000F0DCFC0134285D0028F9D170BDC046054B1A6801210A431A601B68194201D1012000E00020704704002F4010B50E4A21
:401B40000E4B1A60FFF7ECFF1D20FFF7B1FC0C4A116801230B431360F0231B0100E0013B002B03D0064A1268D207F8D5002B01D1012000E0002010BD0110000000002F40F9
:401B800010002F4003B2002B0DDB094A1168094B0B400004034313601268074B1340984203D0012002E0022000E000207047C04614002F40FFFF00800000FF7F002809D187
:401BC0000C4B19680C4A0A401A601B68DB040CD501300DE0074B1A68802149010A431A601B680B4203D1012002E0002000E000207047C04614002F40FFEFFFFF70B5841E52
:401C0000E4B20D2C35D88C1EE4B2052C03D9002B31D1012931D1032A31D8904231D3914231D31C4D2C68240AE4B20F26B44320432E68194C3440000204432C602C68604077
:401C4000F0242401204220D1002B00D002234901C9B29200D2B2114319430E4A1368EE2083430B4313601368034099420FD0ED380EE002200CE002200AE0022008E00220F4
:401C800006E0022004E0022002E0012000E0002070BDC04614002F40FFF0FFFF002809D10B4B1A6810218A431A601B6819420BD001300CE0064B1A6810210A431A601B68FA
:401CC000194203D1012002E0002000E00020704714002F40002809D10B4B1A6801218A431A601B6819420BD001300CE0064B1A6801210A431A601B68194203D1012002E0CE
:401D0000002000E00020704714002F40054B18601B681B041B0C984201D0012000E000207047C04604002F4010B503785B01204A944663441F4A41680A431A6003785B0185
:401D4000634419681C4A11401C4A44682240914224D182681A6103785B0163441A6981688A421DD1C2685A6103785B0163445A69C1688A4216D1012252429A6103785B01B4
:401D800063449A6901320FD10022DA6103785B016344DB69002B09D0012008E0012006E0012004E0012002E0012000E0002010BDA0002F40800080007F007F007FFF7FFF34
:401DC00010B503781B01104A944663440F4A41680A431A6003781B01634419680C4A11400C4A4468224091420AD182685A6003781B0163445A6883689A4203D0012002E02A
:401E0000012000E0002010BD20002F4008008000F7007F00F7FF7FFF70B500240AE063001B199800104B1818FFF7CAFF002805D10134E4B2072CF2D9002500E00125002DE8
:401E40000BD00FE0230108486030C018FFF76CFF002806D10134E4B200E000240F2CF1D900E00125280070BD40360000002809D10C4B19680C4A0A401A601B689B040CD5C0
:401E800001300DE0074B1A68802189010A431A601B680B4203D1012002E0002000E000207047C04614002F40FFDFFFFF10B580221206344B1A60344A136801218B43136087
:401EC000C8231B0200E0013B002B03D02E4A1268D207F8D4002B4AD01D20FFF7F3FA2B491D20FFF7FBFA03211D20FFF709FB1F20FFF748FE00281AD1FFF760FE002818D1DA
:401F0000FFF7B4FF002816D10123022203210430FFF774FE002810D10130FFF7BFFE00280DD1FFF7D7FE00280BD001230AE0012308E0012306E0012304E0012302E00123CA
:401F400000E00023002B14D1FFF766FF002812D10F48FFF7DBFE00280FD10B4B1A6807218A431A601B68194209D0013008E0012006E0012004E0012002E0012000E0002073
:401F800010BDC04600042F4010002F40BD1F00000110000010B5084B1B78002B02D1FFF785FF00E00020002804D10122024B1A70FFF7C4FD10BDC046C00100207047C0462D
:401FC000F8B54F464646C0B4040001200023984691E04C4B1B6832041A427AD12379002B01D1002701E08027BF036379002B07D12B01454A94466344226852055A6009E068
:4020000080235B031F432B013F4A944663442268D2005A60A379072B03D81B041F43B94603E080231B031F43B946E379002B03D004234A461A43914600232AE0032B13D9B7
:402040002801324A94466044026894465907CA1AD1003831FF228A4067469743E268D25C8A403A43026012E02801274A94466044826894465907CA1AD1001831FF228A40D1
:4020800067469743E268D25C8A403A4382600133DBB2A279934201D2072BCFD91D20FFF711FA2B01184A94466344194A4F4617431F60227A002A04D0196803220A431A6075
:4020C00003E0196801220A431A601D20FFF7F0F900207600F6B2002807D00135EDB201E001260025072D00D873E7002806D043460133DBB298464346022BF1D90CBC90468D
:402100009946F8BD08002F4020002F402C002F4008008000000000000230800803D00138FDD1C046C046C0467047EFF3108072B6704780F31088704710B5AF4B1B68002B05
:4021400000D09847AD4B1B68DB0702D50022AC4B1A60AC4B1B789B0628D5AB4B1B68DB0507D5AA4A1188C0239B000B431380012300E00023A44A1268D20706D5A34A1188D7
:4021800090239B000B4313800123002B0FD09D4A1278D20701D5012200E002229B49088802430A800021974A117000E00023954A1278920600D417E1934A1268D20611D5D0
:4021C0001022934B1A608F4B1B78DB0701D5012300E002238D4A11880B4313801022894B1A7007E1874A1278120720D5864A126892070AD50222864B1A60844A1188882392
:402200009B000B431380012311E07E4A1278D20703D525217B4A117009E02421794A11707C4A1268002A02D014397B4A1160754A1278520700D4AEE0724A1278D20749D50C
:40224000764A1268120727D5754A1268754909681F240C40744909686418141B082C09D8002C16D1714A1168714B0B401360012308340EE008240CE06B4A11686D480068B8
:4022800041186D480068C0B20870116801311160013C002CF0D119E0604A1268520715D5614A116863480068411863480068C0B208701168013111601168594A1268914206
:4022C00003D204215D4A116000E001235C495D4A116060E04C4A1268920726D502224C4B1A6059490B681D321A40096880231B020B4000D001239B18544A1168CB1A1360A2
:402300001268534B1A60414A118884239B000B431380504B1A68802149020A431A6019684D4A0A401A60012335E04C4A1268D2061ED427E0454A1168364A126891421DD23A
:40234000344A1268013A414909688A4204D1402243490A6030490A603C4A11684148006841180978C9B240480160116801311160354A12681F210A40082ADBD11021384AF5
:40238000116008E0354A1268520604D52F4B1A682F4B1A600123002B2CD0244A1168244B0B4013600023314A13601B4A1360304B1B789B070ED5134B1B78DB0701D50923FA
:4023C00000E00A23114A11880B43138060220D4B1A700FE0274B1B689B0601D5182200E01022164B1A6005E0064B1B78DB0601D4FEF7B0FD10BDC046700100208C0E264090
:40240000880E2640200300200C0F264030030020000F26402C030020880F2640CC0F264028030020080326403803002060002640FFFEFFFF400300204003264068002640D5
:40244000ED0F0000C00F264008022640340300202403002004022640FFFFFEFF8C0F2640800F26403C03002040022640C80F2640440300206400264070B50400FFF755FED9
:402480000500102C05D8104A136803218B43136016E0202C07D80C490B6803229343023A13430B600CE0302C07D807490B6803229343013A13430B6002E00020FFF70CF806
:4024C0002800FFF736FE70BD30001040044B1B681F221340082BF9D0024B18607047C0460802244040022440002243088B4274D303098B425FD3030A8B4244D3030B8B428D
:4025000028D3030C8B420DD3FF22090212BA030C8B4202D31212090265D0030B8B4219D300E0090AC30B8B4201D3CB03C01A5241830B8B4201D38B03C01A5241430B8B422E
:4025400001D34B03C01A5241030B8B4201D30B03C01A5241C30A8B4201D3CB02C01A5241830A8B4201D38B02C01A5241430A8B4201D34B02C01A5241030A8B4201D30B026F
:40258000C01A5241CDD2C3098B4201D3CB01C01A524183098B4201D38B01C01A524143098B4201D34B01C01A524103098B4201D30B01C01A5241C3088B4201D3CB00C01A66
:4025C000524183088B4201D38B00C01A524143088B4201D34B00C01A5241411A00D20146524110467047FFE701B5002000F006F802BDC0460029F7D076E770477047C0463C
:40260000F0B5564644465F464D46F0B444024600C70F83B08846650A360EBA463DD0FF2E22D00023EC00802599469B46ED0425437F3E43465C025800DB0F640A000E9846A4
:4026400036D0FF2830D080230021E400DB041C437F38301A0190484642460843724E800030587A4013008746002D44D108239946063B9B46DDE70122FF2000241A4064029A
:40268000C305640AD2071C431443200003B03CBC90469946A246AB46F0BD002D20D104239946033B9B46C4E7002C17D1022102E0002C0AD10121321A01924A4643460A43DA
:4026C0005A48920082587B409746200000F05AF9431F76309C4040420021BAE70321B8E7280000F04FF9431F9D4000237630464299469B469DE70C239946093B9B4698E700
:4027000080240022E403FF20B9E70024C2468B465A465346022AAED0032A7DD0012A31D1012200201A400024A9E70122101A1B2856DD1A4000200024A1E78023DB031D428C
:402740004BD18023DB032B435C02640A3A00FF2095E76D016001854230D2019A0024013A01921B220127290064006D00002901DBA84201D82D1A3C43013A002AF3D16A1EEA
:4027800095412C4301987F300028CEDD620704D00F222240042A00D00434220103D5244A019814408030FE2800DD64E70122A401640AC0B21A4062E72C00A9E72D1A1A22D5
:4027C0000124CFE76B02BCD500248023DB031C436402640A4246FF2051E71C42B3D1F4E721002022C140101A8440621E94410C43620704D00F222240042A00D0043462012D
:4028000004D5012201201A40002438E70122A401640A1A40002032E78023DB031C436402640A5246FF202AE7A0370000E0370000FFFFFFF74302590A4300C20F1B0E0020B2
:402840007E2B0EDD9D2B0DDC802000040143952B0BDC9620C31AD9400B005842002A00D118007047034BD018FBE7963B99400B00F3E7C046FFFFFF7F70B5002830D0C31719
:40288000C5185D40C40F280000F07CF89E231B1A962B0DDC9622D21A95406A02520AD8B25202C005520AE40702432243100070BD992B19DC9922D21A9540124A2A40690722
:4028C00004D00F210D40042D00D00432510103D50C4B1A409F231B1A9201520AD8B2DFE7002400200022DBE705222E00121AB921D6402A00C91A8A40551EAA4135001543E4
:40290000DBE7C046FFFFFFFB70B5041E28D000F039F89E231B1A962B0ADC9622D21A94406202520AD8B25202520AC005104370BD992B18DC9922D21A9440114A22406107CB
:4029400004D00F210C40042C00D00432510103D50B4B1A409F231B1A9201520AD8B2E2E700200022DFE705222500121AB921D5402200C91A8A40541EA2412C001443DCE7E5
:40298000FFFFFFFB1C2101231B04984201D3000C10391B0A984201D3000A08391B09984201D30009043902A2105C40187047C0460403020201010101000000000000000032
:4029C000014B18687047C046440100200E4B70B500251E000D4CE41AA410A54204D0AB00F35898470135F8E700F036FF084B00251E00084CE41AA410A54204D0AB00F35806
:402A000098470135F8E770BD6438000064380000643800006C380000002310B59A4203D0CC5CC4540133F9E710BD03008218934202D019700133FAE7704700000CB430B507
:402A4000164B9DB00C1E1D6804DA8B2301202B6040421DE0822302A99B008B810023029008619C4200D0631E8B604B6101235B42CB81209A21AB2800019300F095F8431C3C
:402A800001DA8B232B60002C02D00023029A13701DB030BC08BC02B01847C046440100200EB410B59DB002A9029008610B48822488604861012040421FABC881084804CBF0
:402AC000A400006801938C8100F06EF80023029A13701DB010BC08BC03B01847FFFFFF7F44010020F0B58E6885B007000C00039201939E4243D890238A89DB001A423ED02F
:402B000003250969236801985B1A029363695D43EB0F5D19029B6D1001331B18AB4200D91D00530510D52900380000F037FB061E14D0029A2169FFF76FFFA289194B134059
:402B400080221343A38112E02A00380000F086FB061E0CD12169380000F0D4FA0C23402201203B60A38940421343A38117E0029B2661F61826606561019EED1AA560019BC2
:402B8000B34200D21E0032000399206800F0A5FA0020A3689B1BA36023689E19266005B0F0BDC0467FFBFFFFF0B59FB0029005938B890F0016001B0610D50B69002B0DD1E5
:402BC000402100F0EBFA38603861002804D10C23029A01381360D8E040237B61002306AD6B6120336B761033AB7634002378002B03D1A31B049312D003E0252BF9D0013493
:402C0000F4E7A31B320039000298FFF76BFF431C00D1B4E06A69049B944663446B612378002B00D1ABE00122002352426A6002A95432521801342B60EB60AB601370AB6509
:402C4000534E21780522300000F03CFA002807D00123801B83402A68013413432B60EFE72B68DA0604D55322202102A8121811701A0704D553222B2102A81218117022789D
:402C80002A2A03D0099B00200A210EE0059A111D12680591002A01DB099204E05242EA60022213432B6001340BE02278303A092A04D84B4301349B180120F6E7002800D02C
:402CC000099323782E2B1ED163782A2B0AD1059B02341A1D1B680592002B01DA01235B42079310E000230A201A0001346B6021783039092904D84243013452180123F6E736
:402D0000002B00D00792234E21780322300000F0D9F9002806D04023801B83402A68013413432B60217806221B48661C297600F0C9F9002812D0194B002B06D10722059B47
:402D4000073393430833059314E005AB00933A00134B2900029800E000BF07E005AB00933A000F4B2900029800F08AF80390039B013304D06B69039A9B186B6135E7BB89C3
:402D80000B985B0601D5012040421FB0F0BDC04622380000283800002C38000000000000E52A0000F7B5170001938A680B6900900C00934200DA130022003B604332127810
:402DC000002A01D001333B6023689B0602D53B6802333B60062523681D401ED0230043331B785A1E9341226892061CD53020E1184331087021005A1C45310978A218433215
:402E0000023311700FE022000123193201990098089EB047431C0ED00135E3683A689B1A9D42F0DBDAE72200019943320098089DA847431C02D10120404220E0062320682A
:402E4000E1683A6803400025042B03D18D1AEB43DB171D40A3682269934201DD9B1AED180027BD420AD0220001231A3201990098089EB047431CDED00137F2E70020FEBD7B
:402E8000F0B58BB006920A0043320793059004920A7E0C00109B6E2A00D1ABE011D8632A22D009D8002A00D1B5E0582A00D0C5E045310A70814A4FE0642A1DD0692A1BD070
:402EC000BCE0732A00D1AAE009D86F2A29D0702A00D0B3E0202209680A43226037E0752A1FD0782A33D0A9E00E001A684236111D196013683370A4E021681A68080606D435
:402F0000490604D5111D19600023D55E02E0111D19601568002D3BDA2D23049A6D42137036E021681A68080606D4490604D51568111D1960ADB202E0111D196015685F4BA0
:402F4000227E039308276F2A1DD00A271BE022007821453211705A4A19680392081D226818600D68100602D4500600D5ADB2D30702D520231A4322601027002D03D120236D
:402F800022689A4322602300002243331A7002E00A274A4B03936368A360002B09DB0422216891432160002D05D1049E002B11D07BE0002D79D0049E28003900FFF71AFB34
:402FC000039B013E5B5C280033703900FFF78CFA051EF1D1082F09D12368DB0706D563682269934202DC3023013E3370049B9B1B23612BE009681A68080607D4490605D558
:40300000111D19601368A28A1A8004E0111D1960136862691A600023049E236116E01A68111D1960166800216268300000F04AF8002801D0801B6060636803E0260042368A
:403040003270012323610023049A1370079B09AA00932100069B0598FFF7A4FE431C02D10120404227E02369320006990598079DA847431CF4D0236800259B070FD4099B7E
:40308000E068984217DA180015E022000123193206990598079EB047431CE1D00135E368099A9B1A9D42F0DBE9E72600039B42361B7833708EE70BB0F0BDC0463338000064
:4030C00044380000C9B28218904204D003788B4202D00130F8E70020704710B5884202D98B18984201D3002305E09B1A013A08D3995C8154FAE7934203D0CC5CC454013343
:40310000F9E710BD70B50500002944D00C1F2368002B00DAE418280000F0D8F81E4A13681100002B02D16360146031E0A3420DD92268A018834203D118685B68821822609D
:4031400063600C6024E0A24203D813005A68002AF9D11E689819A0420BD12168711858181960824214D110685268411819605A600EE0A04202D90C232B6009E021686018EE
:40318000824203D1106852684118216062605C60280000F09CF870BDC8010020032370B5CD1C9D43083506000C2D01D20C2501E0002D01DBA94202D90C23336048E03000CD
:4031C00000F084F8234B1C681A002100002913D00B685B1B0DD40B2B02D90B60CC181EE08C4202D1636813601AE04B6863600C0016E00C004968E9E7174C2368002B03D137
:40320000300000F051F820602900300000F04CF8431C18D00323C41C9C43A0420DD12560300000F054F8200007220B30231D9043C31A0ED05A42E2500BE0211A300000F0D5
:4032400033F8431CEBD10C233000336000F03FF8002070BDC8010020C4010020F8B506000C001500002904D11100FFF797FF040018E0002A03D1FFF745FF2C0012E000F023
:4032800027F885420ED929003000FFF787FF071E07D021002A00FFF7BFFB21003000FFF731FF3C002000F8BD002370B5064C050008002360FDF76AFD431C03D12368002B7F
:4032C00000D02B6070BDC04648030020704770470B1F1A68101F002A04DA891804390B68D018043870470000000000000D0A48656C6C6F0D0A000000416464726573733A36
:40330000202578200D0A0000BA040000CA040000D6040000E6040000F2040000FE0400000D0A0D0A426567696E6E696E67206F6620536369656E63655F43414E0D0A0D0A64
:40334000000000000D0A0D0A53544F500D0A0D0A0000000074656D700000000073656E736F72320068756D0073656E736F7220340000000073656E736F7220350000000002
:4033800073656E736F7220360000000044656661756C74004279746525642025782020200000000049443A25782025782025780D0A0000007265616454656D7048756D20AD
:4033C0006661696C0000000054656D70657261747572652028646567726565732043656C6369757329203D2025640909000000004572726F72207769746820777269746522
:4034000020436F6D6D616E642073656E6453746172740D0A00000000657272203D2025640A0000004572726F722077697468207772697465436F6D6D616E643A20777269C9
:403440007465427974650D0A000000004572726F722077697468207772697465436F6D6D616E643A20777269746542797465320D0A0000004572726F72207769746820521E
:40348000656164205374617475733A207772697465436F6D6D616E640D0A00004572726F7220776974682052656164205374617475733A2053656E6453746172740D0A00B4
:4034C0004572726F7220776974682052656164205374617475733A20526561644275660D0A0000004572726F72207769746820526561642054656D702048756D3A207772D7
:40350000697465436F6D6D616E640D0A000000004572726F72207769746820526561642054656D702048756D3A2053656E6453746172740D0A0000004572726F72207769DE
:40354000746820526561642054656D702048756D3A2072656164427974650D0A0000000069203D202564090000300F40000800400F400008E208EC1038A83E5458045F0188
:403580001C101D901F80878089808C108D1053206B088708D420DA40E2100401A720C020A720B4018720A720E6101F408740C60138023C0840015004CE03D008D40438028E
:4035C0003C08940AA404B401CE03EC0888048C05940AA404E00E02011101000001310F4001350F4004360F4007370F4006400F4003410F4002420F4003430F4003440F405F
:4036000007450F4007460F4005470F4002600F40030405060708090A0B0C0E0F101112131415161718191B1C1D1E1F2021222325262728292A2B2E2F303132333435000017
:40364000000000000800880000000000010000000800880000000000020000000800880000000000030000000800880000000000040000000800880000000000050000006B
:40368000080088000000000006000000080088000000000007000000080088000000000000000000A8008000FFFFFFFF0000000001000000A8008000FFFFFFFF0000000004
:4036C00002000000A8008000FFFFFFFF0000000003000000A8008000FFFFFFFF00000000040000000000000000000000000000000500000000000000000000000000000074
:40370000060000000000000000000000000000000700000000000000000000000000000008000000000000000000000000000000090000000000000000000000000000006B
:403740000A0000000000000000000000000000000B0000000000000000000000000000000C0000000000000000000000000000000D0000000000000000000000000000001B
:403780000E0000000000000000000000000000000F0000000000000000000000000000005227000076260000342700000C2700003427000000270000342700000C27000039
:4037C0007626000076260000002700000C270000B8270000B8270000B82700003A2700007626000076260000202700000A2700002027000000270000202700000A270000A3
:403800007626000076260000002700000A270000B8270000B8270000B8270000C42700004300232D302B2000686C4C0065666745464700303132333435363738394142436B
:40384000444546003031323334353637383961626364656600000000F8B5C046F8BC08BC9E467047B1030000050E0000F8B5C046F8BC08BC9E467047890300009038000070
:40388000C00000208800000008020000000000000000000050030020010000000000204E409C000028000000005A6202F000000004040400000000000000000000000000F6
:4038C0000000000000000000000000000000000000000000203800000000000000000000000000000000000000000000000000000000000000000000000000000000000070
:403900000000000000000000000000000000000000000000E40000200000000000000000000000000000000000000000000000000000000000000000000000000000000083
:403940000000000000000000000000000000000000000000000000000000000000000000000000000000000000000000000000000000000000000000000000000000000047
:403980000000000000000000000000000000000000000000000000000000000000000000000000000000000000000000000000000000000000000000000000000000000007
:4039C00000000000000000000000000000000000000000000000000000000000000000000000000000000000000000000000000000000000000000000000000000000000C7
:403A00000000000000000000000000000000000000000000000000000000000000000000000000000000000000000000000000000000000000000000000000000000000086
:020000040003F7
:0200000490303A
:020000005B1D86
:0200000490402A
:4000000000000000000000000000000000000000000000000000000000000000000000000000000000000000000000000000000000000000000000000000000000000000C0
:400040000000000000000000000000000000000000000000000000000000000000000000000000000000000000000000000000000000000000000000000000000000000080
:0200000490501A
:0C0000000002101111A0000110226CBDC4
:0200000490600A
:0100000001FE
:00000001FF