:400000000040002011000000290800002908000010B500F029FCC04610B512222E4B1A60302001F07FF82D4A2D4B1A60BC2292012C4B1A602C4B2D4919602D490A602D4AE1
:400040001A60FE2212022C490A602C4919602C490A602C4A1A60882189012B4A11602B4A1A60E82149012A4A11602A4A1A6080218900294A1160294A1A6082221206284BDE
:400080001A608022D202274B1A604523264A1360264A1360264A1360264A13604622264B1A60063A254B1A600132254B1A600332244B1A60013A244B1A60013A234B1A6071
:4000C0002349072000F064FF072000F04BFF0022204B1A6010BDC046300010400600008004010B40140301400000014045FF00801803014046FF00800003014040FF008008
:400100000403014041FF00801003014044FF00800C03014043FF00800803014042FF008008010B4000010B403801014034010140300101402C010140280101401C01014049
:400140001801014014010140100101400C010140791200000C020B4010B572B601224B4B1A7000240FE04A486200131959000B00411889881A5AC31858880004104300F0A4
:40018000FFFA0134E4B2012CEDD9414801000C31443000F0DBFA3F4A3F4B1A60802212013E4B1A60802212033D4B1A603D493E4B1960EE213D4B196055393D4B19609923A7
:4001C0001B043C490B603C483C4908603C490A603C4A13603C4A13603C4A3D4B1A6001213C4B19603C4803783C22934314221343DBB20370394A107816230343DBB213709B
:400200003F23374A13609C208003364A1060364A13602522354B1A60354A364B1A608022354B1A605F3A354B1A60B032344B1A60344A354B1A600823344A1360C120344A8E
:400240001060AF38334A10603348344A1060344A1360043B334A1360334A13600322334B1A602132324B1A60324B1960324B19600223324A13603031314A1160314A13601F
:40028000FFF7CAFE00F092FA10BDC0461C700F40602700000000F0FF0000024000010240000202400FEE080000030240000502400007024000500F400400990010500F4052
:4002C00014500F4020500F4030500F4010AA0A00600120402000104001700F4000700F400000044008000440180004400001044088631800080104400C010440180104401A
:400300000002044008600000080204400C0204401802044000030440916D0000080304400C03044000040440180404400005044008050440000604401806044000070440F1
:40034000080704401807044010B5064C2378002B07D1054B002B02D0044800E000BF0123237010BD480100200000000084250000084B10B5002B03D00749084800E000BFEF
:4003800007480368002B00D110BD064B002BFBD09847F9E7000000004C01002084250000C00000200000000030B505000024FF2011E02B5D584000230AE042B2002A04DA77
:4003C000400031225040C0B201E04000C0B20133072BF2DD01348C42EBDB30BD30B591B0C4B200F037FD14220021442000F042FC0500C3B2002B0ED0174800F009FBFF224A
:400400002A401649684601F099FC684600F000FB142000F091FC142000F0F2FD1421200000F0B6FC0500C4B2002C0ED00C4800F0EFFAFF222A400949684601F07FFC684614
:4004400000F0E6FA142000F077FC002C01D0002000E0012011B030BD88250000A4250000B025000010B500F0F5FA00F0F3FC14220121442000F0FEFBC4B2142000F05CFCE4
:4004800060426041C0B210BD00B583B01C48FFF7A5FF002805D1143000F04EFC194800F0B7FA14220121442000F0F4FC0322002101A801F008FC022000F0A2FD142201A945
:4004C000002000F089FC14226B46591D002000F083FC14226B46991D012000F07DFCC0B2002805D0142000F027FC074800F090FA01AB187800025B78184303B000BDC046F3
:400500002DF30000D82500000026000010B5FFF7BBFF054B984203D0830403D4002002E0002000E0012010BDFFFF0000F0B5474680B492B007000E0090208001FFF74EFF89
:40054000051E03D1324800F063FA5BE014220121442000F09FFC022000F052FD00241BE00120042C00DC0020C0B210AB1919142200F032FCC0B200280DD0264800F048FAA4
:4005800022002549684601F0D9FB684600F040FA142000F0D1FB0134052CE1DD10A884780221FFF701FF844229D110AB5C79022143206844FFF7F8FE844222D110AC207804
:4005C000000263781843154B58438013144B9C46604401F04BFA134901F016F98046E078000223791843104B5843000B01F086FA0C4901F009F943463B60306002E0002532
:4006000000E00025280012B004BC9046F0BDC0462426000078260000A0260000171100006CEEFFFF0000C8427102000000B583B0002101A8FFF77AFF002801D0019800E044
:40064000014803B000BDC0460000C07F00B583B001A90020FFF76AFF002801D0019800E0014803B000BDC0460000C07F30B593B062B600F057F92C4800F0CAF9FFF7F2FE6E
:40068000002807D1294800F0C3F9FA20800000F0B7FCFAE7264800F0BBF9FFF737FF002803D0244800F0B4F902E0234800F0B0F9FFF7BCFF051CFFF7C9FF041C291C281C9E
:4006C00001F0BCF900280DD1281C01F055FA009001911A4A402102A801F0FEFA02A800F097F902E0164800F093F9211C201C01F0A5F900280DD1201C01F03EFA00900191D5
:40070000104A402102A801F0E7FA02A800F080F902E00D4800F07CF9FA20800000F070FC002013B030BDC046A8260000B8260000D0260000E8260000F42600000027000016
:40074000102700003027000044270000F0B50025002711E0BB00C658F3B2FF22964308E06A008A181478A419527822700135013BDBB2002BF4D10137062FEBD9F0BDC046BA
:4007800010B50A00002101F09EFA10BD064B1B68002803D080221206134301E05B005B08014A13607047C04680033A4010B580231B060F4A136003220E490A600E480F4914
:4007C00008600F480F4908600C200F4908600F490A600F4A13600F4A0F4B1A600F4A104B1A6000220F4B1A600B38FFF7CFFF10BD0000304030003040044004008000304093
:400800000240040088003040C00030403000314000003A404180430000033A40C100430040033A40000E3F4010B501F017FA03680C2B00D1FEE7FEE710B50300084A1068CA
:40084000C318084A9A1A802A02DC054A136005E001F004FA0C2303600120404210BDC046C4000020D001002070B50F4E0F4D13E029686B68AC68002202E001C901C304328B
:40088000A242FAD1E868002202E0002102C304328242FAD11035013E002EE9D101F0E4F9FFF7E4FEFEE7C04601000000CC28000010B50E4A136801218B43136000230AE090
:4008C000032B03D89A000A49505800E009489900094A885001332F2BF2D9FFF73DFC034A116801230B43136010BDC0460000104000000000290800000000002010B500F009
:4009000075F810BD10B500F01DF810BD10B5044A1368802109060B431360FFF7EFFF10BD0000274010B5064B1B78002B04D1FFF7E9FF0122024B1A70FFF7E8FF10BDC0469E
:4009400064010020154A164B1A600023154A13601549164A1160164A16490A6007201649086016490B6006381549086015490A60154A13600421154A1160154A1360154AEF
:400980001360154A1360154A1360154A1360154A13601268144B1A807047C0460B000002000027404000274001000A0048002740070000800003274004032740100327409E
:4009C00044002740000227400402274050002740880E2740C80E2740480F2740080F2740C80F2740880F27406601002005490B68F0229343603A13430B60034B1A88034B44
:400A00001A6070470007024066010020880F274070B50500002402E000F092FC0134285D0028F9D170BDC04610B50A2000F09AFA10BDC04610B500F01DF810BD10B5044A3A
:400A40001368802109060B431360FFF7EDFF10BD0000264010B5064B1B78002B04D1FFF7E9FF0122024B1A70FFF7E8FF10BDC0466801002010B50024184B1C60184A194B2D
:400A80001A60194B194A1360194A1460194A1460194A1360194B1C600A2000F06DFA03210A2000F087FA16490A2000F071FA154B1C60154B1C60154B1C60154B1C60154B2A
:400AC0001C60154B1C601022144B1A70144B1C80144B1C60144B1C6010BDC04600002640770800806000264007010080000326400403264010032640000226400402264029
:400B00005D130000C80E2640880E2640480F2640080F2640C80F2640880F2640A0010020B0010020C0010020A801002010B50E4A13685B005B08136000230C490B600C495C
:400B40000B600C4804680C49214001600B490B600B490B6010210B4B19701368802109060B43136010BDC04600002640680026406C00264060002640FF5CFFFF880F2640C4
:400B8000C80F2640A001002010B504000368002B09D0012000F006FB2368013B2360002B03D0002003E0002001E08020000610BD10B5002839DBC023034208D00022284B98
:400BC0001A601032274B1A70002310243DE0C3070FD5244B1B781B072BD5234B1B685B0001D5002300E0012310211E4A117001242BE0C30520D4830722D4C30605D5102253
:400C0000184B1A70002300241FE0164B1B781B0719D5144B1B78DB0701D5252200E02422104B1A70002300240FE00123802424060BE00123012408E001238024640004E02D
:400C40000023022401E000230024012B02D1FFF76DFF02E0054A064B1A60200010BDC04668002640A00100206000264017030000000F264070B582B004000D001600244BE2
:400C80001B78102B40D10A2000F076F9214B1B68DB0734D4FA239B005E43019600221E4B1A601E4A1E4B1A601E4A1F4B1A606400FF231C40002D03D12422154B1A7004E070
:400CC0002522134B1A7001231C43184B1C600222174B1A60124B1C680823FF3320001840144B1B68C02423401843040001A8FFF74BFF2043EED0FFF75BFF040000E00824BB
:400D00000A2000F02FF900E00424200002B070BDA001002064002640080F264017030000000F2640ED0F0000C00F26404002264068002640400F264010B582B0104B1B7892
:400D40009B061AD5FA239B00584301900D4B1B689B0601D5182200E010220B4B1A600B4B18681223FF331840040001A8FFF70CFF2043F4D0FFF71CFF00E0042002B010BD93
:400D8000A00100206400264068002640000F264010B582B00D4B1B789B0613D5FA239B00594301910A4B18600A4B18680823FF331840040001A8FFF7E7FE2043F4D0FFF718
:400DC000F7FE00E0042002B010BDC046A001002040022640000F2640F0B583B004000D00164B1B789B0626D5FA239B005A430192134B18680223FF3318400700114B1B68C3
:400E000004261E4001A8FFF7BFFE384333000343EED0002E05D00C4B1B682B700B4A094B1A60FFF7C5FE002806D1002C04D10422074B1A6000E0042003B0F0BDA0010020B1
:400E4000000F2640C00F264040032640ED0F00006800264010B50A2000F08EF8044B1C88A4B200221A800A2000F07CF8200010BDB0010020054B1B682022134000D008233C
:400E800001221343024A13607047C046640026406800264010B582B0154B1B789B0623D5FA239B005A4301924000FF240440002903D124220E4B1A7004E025220C4B1A7061
:400EC00001231C43FFF7D6FF0A4B1C600A4B18680823FF331840040001A8FFF755FE2043F4D0FFF765FE00E0042002B010BDC046A001002040022640000F264000230AE05F
:400F00000D4A12683F210A400C49C95C8A4201D1033303E001332D2BF2D9032308490868084A02400A60084A944663441B78DBB2064A13607047C0462CFF0B40C0270000F9
:400F400000002240FFFFFFBFCDF1FF0F28FF0B40034B18688023DB05184000D001207047000022401F2318401E3B8340014A13607047C04600E100E01F2318401E3B8340BA
:400F8000014A13607047C04680E100E001BE704770B504000D001F2802D90020FFF7F6FF1034A40080239B059C4664442068256070BDC04670B504000E00032902D9002049
:400FC000FFF7E4FF1F2C02D90020FFF7DFFF03252540ED00063500F0ACF9A408A400074B9C46644421680323AB4099430B003100A9401943216000F0A0F970BD00E400E096
:4010000010B5040006E0084B586800F089F9074B9C46644480231B029C42F4D8024B9868604300F07DF910BDC80000200080FFFF70B582B000F0CAF800285DD000F079F9ED
:40104000050000230AE02D4A12683F210A402C49C95C8A4201D1033303E001332D2BF2D903230021274A1160274A1268D20606D1254802681F318A4313390A430260234CFA
:401080002168234A1140234A5A438023DB019C466244D20B013A5205520D0B001343A0225203134323601C4B1B680193302000F0F5FA1A4A13688021C9050B43136026686F
:4010C000174B1E40002407E00120FFF799FF1034A30533430D4A1360EE2CF5D90120FFF78FFFFF239B051E43084B1E60019A0A4B1A60280000F021F902B070BD2CFF0B40D8
:40110000C027000028FF0B4034FF0B400800224000F800C040420F003000104000002240FFFF3FC030B587B0040000F002F90500FFF70EFF002803D0FFF7E0FE012100E062
:401140000021104B1B6800930F4B1B680193033C0E4B1B5D02930E4B1B68039304AA0D4B04936B4605930C4B1A600C480C4A10601B68012901D1FFF75BFF280000F0DDF8C8
:4011800007B030BD08010B4000010B40C027000030001040B6EA000008001040170000800400104010B5034B1B7B584300F0B8F810BDC046C8000020034B1868C0231B0234
:4011C000184000D00120704700010B40034B1B68002B01DA012000E0002070470000224010B500F0A6F8044A1368C02109020B43136000F0A2F810BD00010B4010B500F071
:4012000098F808490A68084B1A408024E40122430A600A6813408022120213430B6000F08CF810BD00010B40FF3FFFFF70B5050000F07FF80400FFF7BFFF002803D0FFF717
:40124000DDFF012100E0002108482840084A1568084B2B40184310601368012901D1FFF7BFFF200000F069F870BDC0460404040010020B40FBFBFBFF10B5244B1B685B071E
:4012800015D5234B5B685B070ED5224B596A042001401F4C62688A4362605A6A82435A629B69002B00D098470420FFF7BFFF174B1B685B0518D5164B5B685B0510D5154B7F
:4012C000596A8022D2001140114842688A434260596A114A0A405A62DB69002B00D098478020C000FFF7A2FF084B1B685B030CD5074B5B685B0304D5064B1B6A002B00D089
:4013000098478020C002FFF791FF10BD10020B40DC00002070010020FFFBFFFF000000000230800803D00138FDD1C046C046C0467047EFF3108072B6704780F310887047C7
:40134000044B1B681F221340082BF9D0024B18607047C046080227404002274010B5AF4B1B68002B00D09847AD4B1B68DB0702D50022AC4B1A60AC4B1B789B0628D5AB4B6E
:401380001B68DB0507D5AA4A1188C0239B000B431380012300E00023A44A1268D20706D5A34A118890239B000B4313800123002B0FD09D4A1278D20701D5012200E0022295
:4013C0009B49088802430A800021974A117000E00023954A1278920600D417E1934A1268D20611D51022934B1A608F4B1B78DB0701D5012300E002238D4A11880B43138019
:401400001022894B1A7007E1874A1278120720D5864A126892070AD50222864B1A60844A118888239B000B431380012311E07E4A1278D20703D525217B4A117009E024213A
:40144000794A11707C4A1268002A02D014397B4A1160754A1278520700D4AEE0724A1278D20749D5764A1268120727D5754A1268754909681F240C40744909686418141B09
:40148000082C09D8002C16D1714A1168714B0B401360012308340EE008240CE06B4A11686D48006841186D480068C0B20870116801311160013C002CF0D119E0604A1268E2
:4014C000520715D5614A116863480068411863480068C0B208701168013111601168594A1268914203D204215D4A116000E001235C495D4A116060E04C4A1268920726D5E0
:4015000002224C4B1A6059490B681D321A40096880231B020B4000D001239B18544A1168CB1A13601268534B1A60414A118884239B000B431380504B1A68802149020A43F7
:401540001A6019684D4A0A401A60012335E04C4A1268D2061ED427E0454A1168364A126891421DD2344A1268013A414909688A4204D1402243490A6030490A603C4A11682E
:401580004148006841180978C9B240480160116801311160354A12681F210A40082ADBD11021384A116008E0354A1268520604D52F4B1A682F4B1A600123002B2CD0244AA0
:4015C0001168244B0B4013600023314A13601B4A1360304B1B789B070ED5134B1B78DB0701D5092300E00A23114A11880B43138060220D4B1A700FE0274B1B689B0601D553
:40160000182200E01022164B1A6005E0064B1B78DB0601D4FFF78AFA10BDC0466C0100208C0E2640880E2640A00100200C0F2640B0010020000F2640AC010020880F2640DC
:40164000CC0F2640BC01002008032640C001002060002640FFFEFFFFB40100204003264068002640ED0F0000C00F264008022640A4010020A801002004022640FFFFFEFF57
:401680008C0F2640800F2640C401002040022640C80F2640B80100206400264070B50400FFF747FE0500102C05D8104A136803218B43136016E0202C07D80C490B680322FD
:4016C0009343023A13430B600CE0302C07D807490B6803229343013A13430B6002E00020FFF754FC2800FFF728FE70BD30001040002243088B4274D303098B425FD3030A64
:401700008B4244D3030B8B4228D3030C8B420DD3FF22090212BA030C8B4202D31212090265D0030B8B4219D300E0090AC30B8B4201D3CB03C01A5241830B8B4201D38B0305
:40174000C01A5241430B8B4201D34B03C01A5241030B8B4201D30B03C01A5241C30A8B4201D3CB02C01A5241830A8B4201D38B02C01A5241430A8B4201D34B02C01A5241B0
:40178000030A8B4201D30B02C01A5241CDD2C3098B4201D3CB01C01A524183098B4201D38B01C01A524143098B4201D34B01C01A524103098B4201D30B01C01A5241C308FF
:4017C0008B4201D3CB00C01A524183088B4201D38B00C01A524143088B4201D34B00C01A5241411A00D20146524110467047FFE701B5002000F006F802BDC0460029F7D0D5
:4018000076E770477047C046F0B5564644465F464D46F0B444024600C70F83B08846650A360EBA463DD0FF2E22D00023EC00802599469B46ED0425437F3E43465C02580025
:40184000DB0F640A000E984636D0FF2830D080230021E400DB041C437F38301A0190484642460843724E800030587A4013008746002D44D108239946063B9B46DDE7012267
:40188000FF2000241A406402C305640AD2071C431443200003B03CBC90469946A246AB46F0BD002D20D104239946033B9B46C4E7002C17D1022102E0002C0AD10121321ADE
:4018C00001924A4643460A435A48920082587B409746200000F0A4F9431F76309C4040420021BAE70321B8E7280000F099F9431F9D4000237630464299469B469DE70C2304
:401900009946093B9B4698E780240022E403FF20B9E70024C2468B465A465346022AAED0032A7DD0012A31D1012200201A400024A9E70122101A1B2856DD1A40002000247F
:40194000A1E78023DB031D424BD18023DB032B435C02640A3A00FF2095E76D016001854230D2019A0024013A01921B220127290064006D00002901DBA84201D82D1A3C4341
:40198000013A002AF3D16A1E95412C4301987F300028CEDD620704D00F222240042A00D00434220103D5244A019814408030FE2800DD64E70122A401640AC0B21A4062E771
:4019C0002C00A9E72D1A1A220124CFE76B02BCD500248023DB031C436402640A4246FF2051E71C42B3D1F4E721002022C140101A8440621E94410C43620704D00F22224095
:401A0000042A00D00434620104D5012201201A40002438E70122A401640A1A40002032E78023DB031C436402640A5246FF202AE7F027000030280000FFFFFFF743025A0A02
:401A400040004B024900000E5B0A090EFF2803D00020FF2906D07047FE38002AFBD10020FF29F8D11800431E9841F4E770B5002830D0C317C5185D40C40F280000F0D0F879
:401A80009E231B1A962B0DDC9622D21A95406A02520AD8B25202C005520AE40702432243100070BD992B19DC9922D21A9540124A2A40690704D00F210D40042D00D0043281
:401AC000510103D50C4B1A409F231B1A9201520AD8B2DFE7002400200022DBE705222E00121AB921D6402A00C91A8A40551EAA4135001543DBE7C046FFFFFFFB70B5041E73
:401B000028D000F08DF89E231B1A962B0ADC9622D21A94406202520AD8B25202520AC005104370BD992B18DC9922D21A9440114A2240610704D00F210C40042C00D0043206
:401B4000510103D50B4B1A409F231B1A9201520AD8B2E2E700200022DFE705222500121AB921D5402200C91A8A40541EA2412C001443DCE7FFFFFFFB4200120E511C43026D
:401B8000C9B270B55D0AC40F012915DDE02189008C466D071B0B6244002128000D0D2D052B431C4D52052B40520813435B00E4075B082343190070BD002A15D1002D1FD034
:401BC000280000F02DF80A281DDC0B232A001B1ADA4013000200153295400F4A1B03121A52051B0B520DD7E7002D06D080221B0B120313436D07094ACEE7084A0023CBE78F
:401C000000220023C8E703000B3B9D402B000025E3E7C046FFFF0F8089030000FF0700001C2101231B04984201D3000C10391B0A984201D3000A08391B09984201D30009CF
:401C4000043902A2105C40187047C04604030202010101010000000000000000014B18687047C046440100200E4B70B500251E000D4CE41AA410A54204D0AB00F3589847A9
:401C80000135F8E700F010FE084B00251E00084CE41AA410A54204D0AB00F35898470135F8E770BDB4280000B4280000B4280000BC280000002310B59A4203D0CC5CC45454
:401CC0000133F9E710BD03008218934202D019700133FAE7704700000CB430B5164B9DB00C1E1D6804DA8B2301202B6040421DE0822302A99B008B810023029008619C42BE
:401D000000D0631E8B604B6101235B42CB81209A21AB2800019300F095F8431C01DA8B232B60002C02D00023029A13701DB030BC08BC02B01847C046440100200EB410B5BC
:401D40009DB002A9029008610B48822488604861012040421FABC881084804CBA400006801938C8100F06EF80023029A13701DB010BC08BC03B01847FFFFFF7F440100207C
:401D8000F0B58E6885B007000C00039201939E4243D890238A89DB001A423ED003250969236801985B1A029363695D43EB0F5D19029B6D1001331B18AB4200D91D005305B1
:401DC00010D52900380000F037FB061E14D0029A2169FFF76FFFA289194B134080221343A38112E02A00380000F086FB061E0CD12169380000F0D4FA0C23402201203B6058
:401E0000A38940421343A38117E0029B2661F61826606561019EED1AA560019BB34200D21E0032000399206800F0A5FA0020A3689B1BA36023689E19266005B0F0BDC046E0
:401E40007FFBFFFFF0B59FB0029005938B890F0016001B0610D50B69002B0DD1402100F0EBFA38603861002804D10C23029A01381360D8E040237B61002306AD6B61203349
:401E80006B761033AB7634002378002B03D1A31B049312D003E0252BF9D00134F4E7A31B320039000298FFF76BFF431C00D1B4E06A69049B944663446B612378002B00D18F
:401EC000ABE00122002352426A6002A95432521801342B60EB60AB601370AB65534E21780522300000F03CFA002807D00123801B83402A68013413432B60EFE72B68DA0646
:401F000004D55322202102A8121811701A0704D553222B2102A81218117022782A2A03D0099B00200A210EE0059A111D12680591002A01DB099204E05242EA600222134355
:401F40002B6001340BE02278303A092A04D84B4301349B180120F6E7002800D0099323782E2B1ED163782A2B0AD1059B02341A1D1B680592002B01DA01235B42079310E035
:401F800000230A201A0001346B6021783039092904D84243013452180123F6E7002B00D00792234E21780322300000F0D9F9002806D04023801B83402A68013413432B6069
:401FC000217806221B48661C297600F0C9F9002812D0194B002B06D10722059B073393430833059314E005AB00933A00134B2900029800E000BF07E005AB00933A000F4BDF
:402000002900029800F08AF80390039B013304D06B69039A9B186B6135E7BB890B985B0601D5012040421FB0F0BDC04672280000782800007C28000000000000811D000067
:40204000F7B5170001938A680B6900900C00934200DA130022003B6043321278002A01D001333B6023689B0602D53B6802333B60062523681D401ED0230043331B785A1EA4
:402080009341226892061CD53020E1184331087021005A1C45310978A2184332023311700FE022000123193201990098089EB047431C0ED00135E3683A689B1A9D42F0DB83
:4020C000DAE72200019943320098089DA847431C02D10120404220E006232068E1683A6803400025042B03D18D1AEB43DB171D40A3682269934201DD9B1AED180027BD4299
:402100000AD0220001231A3201990098089EB047431CDED00137F2E70020FEBDF0B58BB006920A0043320793059004920A7E0C00109B6E2A00D1ABE011D8632A22D009D833
:40214000002A00D1B5E0582A00D0C5E045310A70814A4FE0642A1DD0692A1BD0BCE0732A00D1AAE009D86F2A29D0702A00D0B3E0202209680A43226037E0752A1FD0782A28
:4021800033D0A9E00E001A684236111D196013683370A4E021681A68080606D4490604D5111D19600023D55E02E0111D19601568002D3BDA2D23049A6D42137036E0216823
:4021C0001A68080606D4490604D51568111D1960ADB202E0111D196015685F4B227E039308276F2A1DD00A271BE022007821453211705A4A19680392081D226818600D68FA
:40220000100602D4500600D5ADB2D30702D520231A4322601027002D03D1202322689A4322602300002243331A7002E00A274A4B03936368A360002B09DB0422216891430E
:402240002160002D05D1049E002B11D07BE0002D79D0049E28003900FFF7D0FA039B013E5B5C280033703900FFF742FA051EF1D1082F09D12368DB0706D563682269934265
:4022800002DC3023013E3370049B9B1B23612BE009681A68080607D4490605D5111D19601368A28A1A8004E0111D1960136862691A600023049E236116E01A68111D196087
:4022C000166800216268300000F04AF8002801D0801B6060636803E0260042363270012323610023049A1370079B09AA00932100069B0598FFF7A4FE431C02D10120404231
:4023000027E02369320006990598079DA847431CF4D0236800259B070FD4099BE068984217DA180015E022000123193206990598079EB047431CE1D00135E368099A9B1A9B
:402340009D42F0DBE9E72600039B42361B7833708EE70BB0F0BDC0468328000094280000C9B28218904204D003788B4202D00130F8E70020704710B5884202D98B18984284
:4023800001D3002305E09B1A013A08D3995C8154FAE7934203D0CC5CC4540133F9E710BD70B50500002944D00C1F2368002B00DAE418280000F0D8F81E4A13681100002BDD
:4023C00002D16360146031E0A3420DD92268A018834203D118685B688218226063600C6024E0A24203D813005A68002AF9D11E689819A0420BD1216871185818196082424E
:4024000014D110685268411819605A600EE0A04202D90C232B6009E021686018824203D1106852684118216062605C60280000F09CF870BD9C010020032370B5CD1C9D43DE
:40244000083506000C2D01D20C2501E0002D01DBA94202D90C23336048E0300000F084F8234B1C681A002100002913D00B685B1B0DD40B2B02D90B60CC181EE08C4202D1A4
:40248000636813601AE04B6863600C0016E00C004968E9E7174C2368002B03D1300000F051F820602900300000F04CF8431C18D00323C41C9C43A0420DD12560300000F0EB
:4024C00054F8200007220B30231D9043C31A0ED05A42E2500BE0211A300000F033F8431CEBD10C233000336000F03FF8002070BD9C01002098010020F8B506000C00150034
:40250000002904D11100FFF797FF040018E0002A03D1FFF745FF2C0012E000F027F885420ED929003000FFF787FF071E07D021002A00FFF7BFFB21003000FFF731FF3C0072
:402540002000F8BD002370B5064C050008002360FEF772F9431C03D12368002B00D02B6070BDC046C8010020704770470B1F1A68101F002A04DA891804390B68D0180438D6
:4025800070470000000000004572726F72207769746820777269746520436F6D6D616E640D0A0000657272203D2025640A0000004572726F722077697468207772697465B3
:4025C000436F6D6D616E643A207772697465427974650D0A000000004572726F7220776974682052656164205374617475733A207772697465436F6D6D616E640D0A00006B
:402600004572726F7220776974682052656164205374617475733A20526561644275660D0A0000004572726F72207769746820526561642054656D702048756D3A207772A5
:40264000697465436F6D6D616E640D0A000000004572726F7220776974682052656164205374617475733A2053656E64526573746172740D0A0000004572726F7220776932
:40268000746820526561642054656D702048756D3A2072656164427974650D0A0000000069203D2025640900534854333120746573740D0A00000000436F756C646E27743F
:4026C0002066696E642053485433310D0A00000048656174657220456E61626C65642053746174653A200000454E41424C45440D0A00000044495341424C45440D0A00009F
:4027000054656D7043203D20252E3266090900004661696C656420746F20726561642074656D70657261747572650D0A0000000048756D2E202525203D20252E32660D0A1C
:40274000000000004661696C656420746F20726561642068756D69646974790D0A00000000300F40000400400F40000438223E1158045F011C401D2089208C402E046A0488
:40278000CA80DA4007404340C020D01070017410DC0388108C019402A410E002E40102011101000004320F4004330F4004400F4004410F4003420F4006430F4002600F40FD
:4027C000030405060708090A0B0C0E0F101112131415161718191B1C1D1E1F2021222325262728292A2B2E2F30313233343500005A1900007E1800003C190000141900005E
:402800003C190000081900003C190000141900007E1800007E1800000819000014190000C0190000C0190000C0190000421900007E1800007E1800002819000012190000A8
:40284000281900000819000028190000121900007E1800007E1800000819000012190000C0190000C0190000C0190000CC1900004300232D302B2000686C4C0065666745FD
:4028800046470030313233343536373839414243444546003031323334353637383961626364656600000000F8B5C046F8BC08BC9E46704771030000B1080000F8B5C046E1
:4028C000F8BC08BC9E46704749030000E0280000C000002088000000880000000000000000000000D0010020010000000000C05D80BB000030000000006CDC02F0000000CD
:4029000004040400000000000000000000000000000000000000000000000000000000000000000070280000000000000000000000000000000000000000000000000000F3
:40294000000000000000000000000000000000000000000000000000000000000000000000000000E400002000000000000000000000000000000000000000000000000053
:402980000000000000000000000000000000000000000000000000000000000000000000000000000000000000000000000000000000000000000000000000000000000017
:4029C00000000000000000000000000000000000000000000000000000000000000000000000000000000000000000000000000000000000000000000000000000000000D7
:402A00000000000000000000000000000000000000000000000000000000000000000000000000000000000000000000000000000000000000000000000000000000000096
:402A40000000000000000000000000000000000000000000000000000000000000000000000000000000000000000000000000000000000000000000000000000000000056
:020000040001F9
:0200000490303A
:02000000798005
:0200000490402A
:4000000000000000000000000000000000000000000000000000000000000000000000000000000000000000000000000000000000000000000000000000000000000000C0
:400040000000000000000000000000000000000000000000000000000000000000000000000000000000000000000000000000000000000000000000000000000000000080
:0200000490501A
:0C0000000002112D11A1000111398B210B
:0200000490600A
:0100000001FE
:00000001FF